:020000040000FA
:100000000C94D8030C9400040C9400040C94F01B82
:100010000C94F01B0C94F01B0C9400040C94000442
:100020000C9400040C9400040C9400040C94000440
:100030000C9400040C9400040C9400040C94000430
:100040000C942F1A0C9400040C949F1A0C94791A97
:100050000C9400040C9400040C9400040C94000410
:100060000C94D11A0C94000400407A10F35A00A0AA
:10007000724E18090010A5D4E80000E87648170071
:1000800000E40B54020000CA9A3B000000E1F505B1
:10009000000080969800000040420F000000A086FB
:1000A00001000000102700000000E803000000002D
:1000B0006400000000000A000000000001000000D1
:1000C00000002C76D888DC674F0823DFC1DFAE59EB
:1000D000E1B1B796E5E3E453C63AE651997696E87E
:1000E000E6C28426EB898C9B62ED407C6FFCEFBC02
:1000F0009C9F40F2BAA56FA5F490055A2AF75C932D
:100100006B6CF9676DC11BFCE0E40D47FEF520E662
:10011000B500D0ED902E0300943577050080841E45
:10012000080000204E0A000000C80C333333330FA0
:10013000986E12831141EF8D2114893BE65516CF3D
:10014000FEE6DB18D1844B381BF77C1D901DA4BB49
:10015000E424203284725E228100C9F124ECA1E5FE
:100160003D276B5768004672657100566F6C74735B
:1001700000416D707300576174747300507573683B
:100180004572726F72557000507573684461746186
:100190005570004469616700526561645075736809
:1001A00000536C65657000496E6974007C6B57681C
:1001B0003A007C573A007C413A007C563A007C4633
:1001C0003A00235250547C505A454D3A006B5768C0
:1001D0003A2000426164526561644572726F7243F5
:1001E0006F64650052656164457272436E743A20B3
:1001F00000446F6E65210055706C6F6164526561DB
:1002000064526573756C747300446F6E652100559C
:10021000706C6F6164446961674572726F727300DC
:10022000526561644572726F720052656164457215
:10023000726F7200526561644572726F720052652E
:1002400061644572726F7200526561644572726FCB
:100250007200526561643A20467265712E004261F7
:100260006452756E4D6F6465004E6F4D6F646549E5
:100270006E7465726F70740062746E315F4F6E5091
:100280007573680062746E325F4F6E5075736800EC
:1002900062746E325F4F6E52756E003A20762E3A5F
:1002A00000732F6E3A200076657273696F6E3A2084
:1002B000004D6F64656C3A2000696F746563682E49
:1002C00073797374656D73005365744E6577494433
:1002D0005F457272005365744E657749445F4F4BBA
:1002E00000203A200042616449443A20004E616D8A
:1002F000653A20002D2D5B20536F66745561727432
:10030000457272205D2D2D0074785F70696E3A2001
:100310000072785F70696E3A2000202049443A20CC
:10032000004E616D653A20002D3E20496E69745380
:100330006F6674556172747300464F524D41544557
:100340004400454550524F4D5F4E4F545F464F520B
:100350004D415445440A666F726D617474696E67ED
:100360002E2E2E00454550524F4D5F5345454D535F
:100370005F464F524D4154544544004261645353CB
:10038000585F414452005353363A20005353353A94
:1003900020005353343A20005353333A2000535330
:1003A000323A20005353313A20002D2D205B204358
:1003B0006F6E666967496E666F205D202D2D007334
:1003C0006574757020697320646F6E650073657461
:1003D000757020697320646F6E6500534552494102
:1003E0004C5F54585F4255464645525F53495A4503
:1003F0003A2000235250547C4D4F44453A536C658B
:100400006570210000000000240027002A00000081
:100410000000250028002B0000000000230026001B
:100420002900040404040404040402020202020277
:1004300003030303030301020408102040800102A8
:100440000408102001020408102000000008000227
:1004500001000003040700000000000000004F4BF3
:1004600000534E5F4F564552464C4F57002353455D
:10047000547C444556534E3A002100234445564986
:100480004E464F7C444556534E3A00234745547CD4
:10049000444556534E21002100302E31007C00503F
:1004A0005A454D5F52454144455200234445564903
:1004B0004E464F7C00234745547C444556494E46A2
:1004C0004F210021003A00235253507C0053535FC8
:1004D000360053535F350053535F340053535F333B
:1004E0000053535F320053535F3100234745547C20
:1004F00053533A00234745547C53533A004C424CE3
:100500003A0053535F360053535F350053535F3403
:100510000053535F330053535F320053535F310036
:10052000235345547C53533A004241445F494E5053
:100530005554004F4B5F000000C1C081C140010114
:10054000C3C003800241C201C6C006800741C70084
:1005500005C1C581C4400401CCC00C800D41CD0053
:100560000FC1CF81CE400E000AC1CA81CB400B0122
:10057000C9C009800841C801D8C018801941D900F4
:100580001BC1DB81DA401A001EC1DE81DF401F0182
:10059000DDC01D801C41DC0014C1D481D540150193
:1005A000D7C017801641D601D2C012801341D300A4
:1005B00011C1D181D0401001F0C030803141F10033
:1005C00033C1F381F240320036C1F681F740370182
:1005D000F5C035803441F4003CC1FC81FD403D0153
:1005E000FFC03F803E41FE01FAC03A803B41FB0024
:1005F00039C1F981F840380028C1E881E940290172
:10060000EBC02B802A41EA01EEC02E802F41EF0083
:100610002DC1ED81EC402C01E4C024802541E50092
:1006200027C1E781E640260022C1E281E3402301A1
:10063000E1C021802041E001A0C060806141A100B3
:1006400063C1A381A240620066C1A681A740670181
:10065000A5C065806441A4006CC1AC81AD406D0152
:10066000AFC06F806E41AE01AAC06A806B41AB0023
:1006700069C1A981A840680078C1B881B9407901F1
:10068000BBC07B807A41BA01BEC07E807F41BF0083
:100690007DC1BD81BC407C01B4C074807541B50092
:1006A00077C1B781B640760072C1B281B3407301A1
:1006B000B1C071807041B00050C190819140510132
:1006C00093C053805241920196C056805741970083
:1006D00055C19581944054019CC05C805D419D0052
:1006E0005FC19F819E405E005AC19A819B405B0121
:1006F00099C059805841980188C048804941890073
:100700004BC18B818A404A004EC18E818F404F0180
:100710008DC04D804C418C0044C184818540450191
:1007200087C047804641860182C0428043418300A2
:1007300041C181818040407C455252464C47533AEA
:10074000007C4D4F44453A00234552527C505A4557
:100750004D3A005265706F72743A20505A454D20E0
:10076000004D4F44453A205265646F44696167000B
:100770004D4F44453A2057616B657570004D4F44AD
:10078000453A2000505A454D3A20004D4F44453AD5
:1007900020002D2D2077656C636F6D65202D2D0059
:1007A0004D4F44453A2000505A454D3A2000681CB0
:1007B00011241FBECFEFD8E0DEBFCDBF24E0A4E7F9
:1007C000B2E001C01D92A63EB207E1F712E0A0E040
:1007D000B1E0E4ECF6E502C005900D92A437B10754
:1007E000D9F713E0C8EDD3E004C02197FE010E94C1
:1007F0008B26C73DD107C9F70E94401D0C94602B82
:100800000C940000833081F028F4813099F082301C
:10081000A9F008958730A9F08830C9F08430B1F488
:10082000809180008F7D03C0809180008F778093BE
:100830008000089584B58F7784BD089584B58F7D39
:10084000FBCF8091B0008F778093B00008958091A6
:10085000B0008F7DF9CFCF93DF93282F30E0F901DF
:10086000E65BFB4F8491F901EA5CFB4FD491F901FF
:10087000EE5DFB4FC491CC23A1F081110E940204D4
:10088000EC2FF0E0EE0FFF1FE85EFB4FA591B49157
:10089000EC91ED2381E090E009F480E0DF91CF91CD
:1008A000089580E090E0FACF1F93CF93DF93282F35
:1008B00030E0F901E65BFB4F8491F901EA5CFB4F04
:1008C000D491F901EE5DFB4FC491CC23A9F0162F12
:1008D00081110E940204EC2FF0E0EE0FFF1FE25F97
:1008E000FB4FA591B4918FB7F894EC91111108C00A
:1008F000D095DE23DC938FBFDF91CF911F910895B8
:10090000DE2BF8CFCF93DF9390E0FC01EA5CFB4F46
:1009100024918E5D9B4FFC0184918823C9F090E067
:10092000880F991FFC01EC5FFB4FA591B491FC016E
:10093000E25FFB4FC591D49161110DC09FB7F89450
:100940008C91209582238C938881282328839FBFB4
:10095000DF91CF910895623051F49FB7F8943C91A4
:10096000822F809583238C93E8812E2BEFCF8FB736
:10097000F894EC912E2B2C938FBFEACF3FB7F894CD
:1009800080919E0390919F03A091A003B091A10339
:1009900026B5A89B05C02F3F19F00196A11DB11DDA
:1009A0003FBFBA2FA92F982F8827BC01CD01620F16
:1009B000711D811D911D42E0660F771F881F991FD1
:1009C0004A95D1F708958F929F92AF92BF92CF929E
:1009D000DF92EF92FF926B017C010E94BE044B01FB
:1009E0005C01C114D104E104F104B9F00E94BE0419
:1009F000681979098A099B09683E73408105910548
:100A000080F321E0C21AD108E108F10888EE880ECF
:100A100083E0981EA11CB11CE4CFFF90EF90DF9003
:100A2000CF90BF90AF909F908F9008952FB7F8947C
:100A300060919A0370919B0380919C0390919D0318
:100A40002FBF0895089508950895DC01ED91FC915C
:100A50000190F081E02D0994EF92FF920F931F9384
:100A6000CF93DF938C017B01D0E0C0E0F701EC0F66
:100A7000FD1F6491662361F0D801ED91FC91019016
:100A8000F081E02DC8010995892B11F02196EECF58
:100A9000CE01DF91CF911F910F91FF90EF900895BC
:100AA000AF92BF92CF92DF92EF92FF920F931F937C
:100AB000CF93DF936C017B018B01040F151FEB01BA
:100AC0005E01AE18BF08C017D10759F06991D60171
:100AD000ED91FC910190F081E02DC6010995892BE3
:100AE00079F7C501DF91CF911F910F91FF90EF90A2
:100AF000DF90CF90BF90AF900895FC01538D448D4F
:100B0000252F30E0842F90E0821B930B541710F0B8
:100B1000CF96089501970895FC01918D828D9817C5
:100B200061F0A28DAE0FBF2FB11D5D968C91928D9D
:100B30009F5F9F73928F90E008958FEF9FEF0895CE
:100B40000F931F930E9416056093E2037093E303D3
:100B50008093E4039093E5038AED93E00E948C0573
:100B600097FF1DC00E9416050091E2031091E30358
:100B70002091E4033091E503601B710B820B930B12
:100B80000091DE031091DF032091E0033091E10337
:100B90006017710782079307F8F28FEF9FEF1F919D
:100BA0000F910895FC01918D828D981731F0828DFF
:100BB000E80FF11D858D90E008958FEF9FEF089568
:100BC000FC01918D228D892F90E0805C9F4F821BCC
:100BD00091098F73992708958AED93E00E94E005AB
:100BE00021E0892B09F420E0822F089580E090E035
:100BF000892B29F00E94EC0581110C9400000895C6
:100C0000FC01A48DA80FB92FB11DA35ABF4F2C9181
:100C1000848D90E001968F739927848FA689B78978
:100C20002C93A089B1898C91837080648C93938D6F
:100C3000848D981306C00288F389E02D80818F7D12
:100C400080830895EF92FF920F931F93CF93DF93CA
:100C5000EC0181E0888F9B8D8C8D98131AC0E889F8
:100C6000F989808185FF15C09FB7F894EE89FF89C7
:100C70006083E889F98980818370806480839FBF65
:100C800081E090E0DF91CF911F910F91FF90EF9065
:100C90000895F62E0B8D10E00F5F1F4F0F73112775
:100CA000E02E8C8D8E110CC00FB607FCFACFE889B0
:100CB000F989808185FFF5CFCE010E940006F1CF32
:100CC000EB8DEC0FFD2FF11DE35AFF4FF0829FB724
:100CD000F8940B8FEA89FB8980818062CFCFCF9314
:100CE000DF93EC01888D8823B9F0AA89BB89E88954
:100CF000F9898C9185FD03C0808186FD0DC00FB6FA
:100D000007FCF7CF8C9185FFF2CF808185FFEDCF77
:100D1000CE010E940006E9CFDF91CF910895209186
:100D20002103260F3327331F21323105ECF42091A4
:100D30004503FC0190E080E0243069F082E00895F2
:100D4000A09121032191AC014F5F5C4FA40FB52FFF
:100D5000B11D2C930196861798F380912103680F9B
:100D60006093210380E0089581E008951092450387
:100D700081E0809347031092460361E082E10E9484
:100D8000540461E083E10E945404E9EBF0E08081C7
:100D90008E7F808380818D7F808388E48093B800FC
:100DA00085E48093BC000895CF93DF9391E0909306
:100DB00000038823B9F0C091B800D091BA008091A7
:100DC000BC008A7B8093BC0060E082E10E945404F6
:100DD00060E083E10E9454040E94B606D093BA00FA
:100DE000C093B800DF91CF9108950895E0918B03EF
:100DF00080918A03E81730F4F0E0E552FD4F8081DE
:100E000090E008958FEF9FEF089590918B0380916C
:100E10008A032FEF3FEF981748F4E92FF0E0E552EF
:100E2000FD4F208130E09F5F90938B03C9010895AF
:100E300080918A0390918B03891B990B0895CF921F
:100E4000DF92EF92FF920F931F93CF93DF937C017A
:100E5000CB018A012091DA02222389F0EB016B0198
:100E6000C40ED51ECC15DD0569F06991D701ED9151
:100E7000FC910190F081E02DC7010995F3CF642F1B
:100E80000E948F06C801DF91CF911F910F91FF90B3
:100E9000EF90DF90CF900895CF93DF931F92CDB75F
:100EA000DEB769832091DA022223F9F020918803CA
:100EB000203258F021E030E0FC013383228390E0BF
:100EC00080E00F90DF91CF91089580918903E82F02
:100ED000F0E0E654FD4F998190838F5F8093890302
:100EE0008093880381E090E0ECCF61E0CE01019631
:100EF0000E948F06F7CFCF92DF92EF92FF920F936F
:100F00001F93CF93DF93FC01C48121E02093DA0289
:100F1000C093B90210928903109288038385682BCD
:100F200087E794E00E944C07D0918803D13208F003
:100F300092C00E94BE046B017C0180914503811127
:100F400065C082E08093450381E0809347038FEF83
:100F50008093440310926903D0936803AAEBB2E034
:100F6000E8E4F3E080E0D81385C010926A03809132
:100F70006A03CC0FC82BC0936A038091460381306B
:100F800009F07CC0109246030E94BE046B017C01F4
:100F900080916A038093BB008091FC029091FD02D6
:100FA000A091FE02B091FF02892B8A2B8B2B99F026
:100FB0000E94BE040091FC021091FD022091FE02ED
:100FC0003091FF026C197D098E099F0906171707DA
:100FD00028073907E0F18091BC0083FDD9CF85EC6B
:100FE0008093BC000E94BE046B017C01809145038C
:100FF000823009F445C0809144038F3F61F18091B4
:101000004403803241F18091440325C08091FC0269
:101010009091FD02A091FE02B091FF02892B8A2BD4
:101020008B2B09F48ACF0E94BE040091FC02109120
:10103000FD022091FE023091FF026C197D098E099C
:101040009F09061717072807390708F076CF809100
:10105000FB020E94D406109289031092880310921A
:10106000DA02DF91CF911F910F91FF90EF90DF9007
:10107000CF9008959D9191938F5F75CF85EEB0CFFE
:101080008091FC029091FD02A091FE02B091FF02BE
:10109000892B8A2B8B2B09F4A9CF0E94BE040091C7
:1010A000FC021091FD022091FE023091FF026C19AA
:1010B0007D098E099F09061717072807390708F0C9
:1010C00095CFC5CF2091B7023091B80228173907C4
:1010D00071F49091B6028091B502981741F0E091B9
:1010E000B602F0E0EB58FD4F808190E008958FEF5D
:1010F0009FEF0895EF92FF920F931F93CF93DF938B
:10110000DC015C96ED90FC905D97E114F10479F4BC
:1011100081E090E013969C938E93129790E080E08C
:10112000DF91CF911F910F91FF90EF90089551960D
:10113000ED91FC91529750968C915097982F9095E5
:101140000FB75E962C915E97122F127021FD60955D
:10115000F8942081112319F1282B2083E70121978E
:10116000F1F728E0462F50E0308160FF1AC0382B9D
:101170003083E7012197F1F7BA0175956795215002
:1011800089F7112381F08081892380830FBF5C96CA
:101190008D919C910197F1F781E090E0C1CF2923D7
:1011A000DCCF3923E5CF9081892BEFCF2091B70297
:1011B0003091B8022817390761F48091B502209167
:1011C000B60290E0805C9F4F821B91098F73992734
:1011D000089590E080E008952091B7023091B80220
:1011E00028173907B9F49091B6028091B502981783
:1011F00089F0E091B602F0E0EB58FD4F808120913C
:10120000B60230E02F5F3F4F2F7333272093B60293
:1012100090E008958FEF9FEF08951F93CF93DF9392
:10122000EC01162F60E0812F0E9482048E8D81FDDB
:1012300004C061E0812F0E9454041C87812F90E03C
:10124000FC01EA5CFB4FE491ED87FC01EE5DFB4F96
:10125000E491F0E0EE0FFF1FE85EFB4F8591949163
:101260009F878E87DF91CF911F9108951F93CF9312
:10127000DF93EC01162F6E8D6695617081E0682713
:10128000812F0E94540461E0812F0E948204812FEB
:1012900090E0FC01EA5CFB4FE491E88BFC01EE5D21
:1012A000FB4FE491F0E0EE0FFF1FE25FFB4F8591F3
:1012B00094919A8B898BDF91CF911F910895E09142
:1012C000B702F091B802E817F90769F4A389B48965
:1012D0009C918589809589238C931092B8021092F5
:1012E000B70281E0089580E00895CF93DF93EC0189
:1012F0008A8D9B8D892B01F18091B7029091B80264
:101300008C179D07C9F0009711F00E945F098E8D20
:101310008E7F8E8F1092B5021092B602D093B802D3
:10132000C093B702EB89FC8980819D89892B8083DA
:1013300081E0DF91CF91089580E0FBCFFC01138E17
:10134000128E118E108E178A168A8DE991E0958F74
:10135000848F84858631D8F52DEB30E0378B268B52
:101360002BE931E0318F208F2CE231E0338F228F57
:1013700090916800883070F121E08E3008F420E010
:1013800081E001C0880F2A95EAF7892B80936800D5
:1013900084852DE630E0883050F02BE630E08E304A
:1013A00030F02CE630E0863110F030E020E0348B75
:1013B000238B282F30E0883078F491E001C0990F1A
:1013C0008A95EAF7958B848D958D0197F1F7CF017A
:1013D0000C94750984E0D9CF8E3040F4285031093F
:1013E00091E001C0990F2A95EAF7ECCF2E50310910
:1013F000F7CF4F925F926F927F92AF92BF92DF9240
:10140000EF92FF920F931F93CF93DF938C017B0199
:101410005A01DC0112968C911297882321F08D914C
:101420009C910E9475090E9416052B013C01D12C4C
:10143000CD2DD0E0CA15DB05D0F0CE010297D70143
:101440009E016FEF7FEF215031092130310509F402
:101450004CC0ED91472F5527E627F0E0EE0FFF1F18
:10146000E95CFA4F6591749164277527ECCF0E946F
:101470001605641975098609970964367105810591
:101480009105E0F4F80180819181DC01ED91FC91FE
:101490000084F185E02D0995181619065CF6D8012F
:1014A0008D919C91DC01ED91FC910284F385E02DFE
:1014B0000995D394CE0DDF1D8883BACFC330D105F3
:1014C00008F0BBCFF8011682D0E0C0E0CE01DF917A
:1014D000CF911F910F91FF90EF90DF90BF90AF9051
:1014E0007F906F905F904F900895F701EC0FFD1F74
:1014F00031972081E80EF91EF7018081922F86171F
:10150000970701F781E0D80116968C93DFCFCF9231
:10151000DF92EF92FF920F93CF93DF93CDB7DEB7B9
:1015200060970FB6F894DEBF0FBECDBF6C01DC0133
:1015300015968C9189876A871B864C873D872E87F5
:101540007E01B9E0EB0EF11C9E01215F3F4FD701F8
:101550004FEF5FEF852F9927A217B30761F0ED9149
:10156000E427F0E0EE0FFF1FE95CFA4F459154913C
:1015700048275927EFCF4F87888BF60180819181CB
:10158000DC01ED91FC910280F381E02D48E050E018
:10159000B70109950023B9F048E050E0BE016F5F44
:1015A0007F4FC6010E94F909892BE1F0FE013196B7
:1015B000C7010896D7013D917D012191321312C0D8
:1015C000A817B907B9F781E060960FB6F894DEBFA7
:1015D0000FBECDBFDF91CF910F91FF90EF90DF90C5
:1015E000CF90089580E0F0CF2F923F924F925F927C
:1015F0006F927F928F929F92AF92BF92CF92DF9223
:10160000EF92FF920F931F93CF93DF93EC0129A1E9
:101610003AA14BA15CA16DA17EA18FA198A52853F1
:101620003F4F4F4F5F4F6F4F7F4F8F4F9F4F59012E
:101630006A017B018C010E9416051B012C0195019A
:10164000A601B701C80151016201E12CF12C00E0B3
:1016500010E00E94822611F008F0C0C02AE030E0BD
:1016600050E040E064E0CE010E94870A49E150E08A
:101670006BE673E0CE010E94F909499709F0C2C0F8
:1016800060916E0370916F0376276727762790E04D
:1016900080E00E94DC2320E030E040E251E40E9440
:1016A000B5256F83788789879A8720917003609129
:1016B000720370E090E080E0962F882777276627F6
:1016C000722B20917103622B20917303822B0E9455
:1016D000DC2320E030E04AE754E40E94B5256B8724
:1016E0007C878D879E87209174036091760370E0DC
:1016F00090E080E0962F882777276627722B20912D
:101700007503622B20917703822B0E94DC2320E05B
:1017100030E040E251E40E94B5256F87788B898BD9
:101720009A8B2091780360917A0370E090E080E0DA
:10173000962F882777276627722B20917903622BB3
:1017400020917B03822B0E94DC2320E030E04AE7DB
:1017500054E40E94B5256B8B7C8B8D8B9E8B6091A6
:101760007C0370917D0376276727762790E080E0E1
:101770000E94DC2320E030E040E251E40E94B525E5
:101780006F8B788F898F9A8F60917E0370917F0322
:1017900076276727762790E080E00E94DC2320E010
:1017A00030E048EC52E40E94B5256B8F7C8F8D8F22
:1017B0009E8F809180039091810398278927982795
:1017C00098A38F8F0E9416058B019C0169A31AA311
:1017D0008BA33CA31DA21EA21FA218A681E0DF912D
:1017E000CF911F910F91FF90EF90DF90CF90BF901E
:1017F000AF909F908F907F906F905F904F903F90B1
:101800002F90089580E0EBCF90E080E008950F9353
:101810001F93CF93DF93EC010E94160509851A856B
:101820002B853C85601B710B820B930B603C744DC8
:101830008140910560F488E08093C30460E088EB08
:1018400094E0DF91CF911F910F910C947B07109240
:10185000C304F4CF80919703909198030197873048
:10186000910540F4880F991FFC01E159FE4F8081DA
:10187000918108958EE592E008950F931F93CF9381
:101880008C01C62F0E947B076C2F6460C8010E94E8
:101890007B076C2F6B7FC8010E947B0783EC90E075
:1018A0000197F1F7CF911F910F9108950F931F9317
:1018B000CF93DF938C01D62FC42F607F642B0E94BF
:1018C0003D0C80E1D89FB00111246C2BC801DF9141
:1018D000CF911F910F910C943D0CCF93DF93CDB717
:1018E000DEB728970FB6F894DEBF0FBECDBF98E0E5
:1018F000E4E2F1E0DE01119601900D929A95E1F794
:101900009091C004961710F46FEF690F262F30E006
:10191000220F331F41E050E04C0F5D1F240F351F95
:10192000F9016081680F606840E088EB94E02896D8
:101930000FB6F894DEBF0FBECDBFDF91CF910C94F0
:10194000560C60E080E00E946D0C6FE974E088EB5B
:1019500094E00E942C056BE972E088EB94E00E9411
:101960002C0569E974E088EB94E00C942C0540E0C8
:1019700061E088EB94E00E94560C8BE39FE10197B5
:10198000F1F7089541E00E94560C81E090E008953F
:101990008CE0EEECF3E0DF01982F1D929A95E9F7C9
:1019A000E2ECF3E0DF011D928A95E9F7E2EAF3E069
:1019B00080E2DF011D928A95E9F70895CF93DF93C6
:1019C000DC0114962D913C911597232B79F0FB01A6
:1019D000CD91DC9160817181CE010E94A528009794
:1019E00029F08C1B9D0BDF91CF9108958FEF9FEF16
:1019F000FACFCF93DF93EC0188819981009711F0A2
:101A00000E942D27198218821D821C821B821A8235
:101A1000DF91CF910895FC0180819181009711F0B1
:101A20000C942D270895CF93DF93FC01C381D481BB
:101A3000209761F081E891E099838883CE010E942C
:101A40005F09CE01DF91CF910C942D27DF91CF91CB
:101A500008950F931F93CF93DF938C01EB018617AB
:101A60009707D1F0FC01808191810097E9F06881AE
:101A7000798161157105B1F0428153812C813D81DD
:101A80004217530778F00E9490288C819D81F801BD
:101A9000958384831D821C82C801DF91CF911F91A1
:101AA0000F9108950E942D2788819981F8019183D3
:101AB00080838A819B81938382838C819D8195839E
:101AC0008483198218821B821A82E4CFFB01019061
:101AD0000020E9F73197AF01461B570BDC01ED9170
:101AE000FC910280F381E02D0994CF93DF93BC0138
:101AF0008AED93E00E942C05EC0165EC71E08AED23
:101B000093E00E94660D8C0F9D1FDF91CF91089589
:101B100084E892E00C94750D809174028F5F80933D
:101B20007402893031F480E992E00E94750D1092C0
:101B3000740208958F929F92AF92BF92EF92FF929C
:101B40000F931F93CF93DF93CDB7DEB7A1970FB657
:101B5000F894DEBF0FBECDBF7C01FA01CB0119A204
:101B6000223008F42AE08E010F5D1F4F822E912C47
:101B7000B12CA12CBF01A50194010E946026F9019E
:101B8000CA016A300CF5605DD8016E938D01232B7C
:101B9000242B252B79F790E080E0109721F0BD01F0
:101BA000C7010E94660DA1960FB6F894DEBF0FBE66
:101BB000CDBFDF91CF911F910F91FF90EF90BF901C
:101BC000AF909F908F900895695CDECF482F50E0D2
:101BD00070E060E02AE088EB94E00C949A0DCF93DB
:101BE000DF93D0E0C0E0009731F0BC018AED93E0D4
:101BF0000E94660DEC0165EC71E08AED93E00E94B5
:101C0000660D8C0F9D1FDF91CF9108958F929F924B
:101C1000AF92BF92CF92DF92EF92FF920F931F93FA
:101C2000CF93DF93EC016A017B01AB019601CB01FD
:101C3000B6010E945B2668EC71E0811126C0460166
:101C40005701E894B7F82FEF3FEF4FE75FE7C50183
:101C5000B4010E945B2681110CC02FEF3FEF4FE7CC
:101C60005FE7C501B4010E94D7236CEC71E0181640
:101C700064F02FEF3FEF4FE75FE4C701B6010E942A
:101C8000562618168CF460ED71E0CE01DF91CF91ED
:101C90001F910F91FF90EF90DF90CF90BF90AF908A
:101CA0009F908F900C94660D2FEF3FEF4FE75FEC06
:101CB000C701B6010E94D72387FDE5CF20E030E0C1
:101CC000A901C701B6010E94D72310E000E087FFF9
:101CD00009C06DE2CE010E9425058C01F7FAF0944F
:101CE000F7F8F0942AE037ED43EA5BE3C701B60169
:101CF0000E9449256B017C010E9427264B015C0153
:101D00000E94DC239B01AC01C701B6010E9448255B
:101D10006B017C012AE0B501A401CE010E949A0D5D
:101D2000080F191F6EE2CE010E942505080F191F2A
:101D300020E030E040E251E4C701B6010E943D24BA
:101D40004B015C010E9427266B01F12CE12C2AE05B
:101D5000B701A601CE010E949A0D080F191FC701F5
:101D6000B6010E94DC239B01AC01C501B4010E94B5
:101D7000482520E030E040E251E40E943D240E94EA
:101D80002726AB0170E060E02AE0CE010E949A0DA8
:101D9000800F911FDF91CF911F910F91FF90EF90D6
:101DA000DF90CF90BF90AF909F908F900895611576
:101DB000710511F00C94660D90E080E00895CF93CA
:101DC000C82F0E94B70CC33009F448C030F5C130A9
:101DD00089F1C230D1F160E080E00E946D0C67EAC9
:101DE00077E088EB94E00E942C05E0918304F09169
:101DF00084046381748188EB94E00E94D70E61E0D3
:101E000081E00E946D0C60EA77E088EB94E00E942C
:101E10002C050E942A0CBC0113C0C430D1F1C5307E
:101E2000D1F60E94A10C61E082E00E946D0C61E697
:101E300077E006C061E083E00E946D0C62E977E024
:101E400088EB94E0CF910C942C050E94A10C61E0EA
:101E500082E00E946D0C6BE877E0D7CF60E080E015
:101E60000E946D0C64E877E088EB94E00E942C05FA
:101E7000E0918304F09184046381748188EB94E0A1
:101E80000E94D70E61E081E00E946D0C6DE777E063
:101E9000BCCF0E94A10C61E082E00E946D0C60E763
:101EA00077E0CECFCF93DF9388E792E00E94750D65
:101EB000C0919703D0919803C430D10531F489E6DD
:101EC00092E0DF91CF910C94750D88E08093C3046C
:101ED00060E088EB94E00E947B07229719F484E08D
:101EE0000E94DF0E8091970390919803059731F43B
:101EF00085E00E94DF0E81E080939603809191033C
:101F000090919203A0919303B0919403805C944DBF
:101F1000A140B1098093910390939203A0939303FE
:101F2000B093940368EE73E080E090E0DF91CF918E
:101F30000C94E3040E94B70C60E080E00E946D0CFA
:101F400063E577E088EB94E00E942C05E091830440
:101F5000F09184046381748188EB94E00C94D70E33
:101F6000CF93DF9368E477E08AED93E00E942C053D
:101F7000C3E8D4E0E881F981638174818AED93E05C
:101F80000E94D70E61E477E08AED93E00E942C0571
:101F90000E942A0CBC018AED93E00E942C0567E3A5
:101FA00077E08AED93E00E942C05498D5A8D70E010
:101FB00060E02AE08AED93E00E949A0D84ED91E0C2
:101FC0000E94EF0D81E0DF91CF9108950F931F9351
:101FD000CF93DF93FC012181222309F444C0EC015B
:101FE0000E94160509851A852B853C85601B710B9F
:101FF000820B930B603E714081059105A0F166ED67
:1020000071E08AED93E00E94D70E0E942A0CBC0179
:102010008AED93E00E942C0561EE71E08AED93E079
:102020000E94D70E6F8178858AED93E00E94D70ECB
:1020300067EE71E08AED93E00E94D70E84ED91E0A7
:102040000E94EF0D8A819B81892B69F00E94160501
:1020500069877A878B879C87EA81FB81DF91CF91A3
:102060001F910F910994DF91CF911F910F910895C6
:10207000CF93DF93FC01248135814217530788F405
:10208000C081D181062E000C770BCE01840F951FE5
:102090000E947C28009729F08C1B9D0BDF91CF912B
:1020A00008958FEF9FEFFACFFB0144815581FC012A
:1020B000248135812417350778F08081918100973C
:1020C00059F0FB01608171816115710529F00E9451
:1020D000972821E0892B09F020E0822F0895FC0148
:1020E00024813581FB014481558124173507E1F4B2
:1020F000FC0180819181FB01608171810097D1F0A9
:1021000061157105A1F4232BC1F0FC01808190E0E1
:1021100008C0232B91F0FB01808190E0919581957F
:10212000910921E0892B09F020E0822F08950E9477
:102130008728F7CF6115710561F721E0F6CF0F937E
:102140001F93CF93DF93EC0188819981009759F019
:102150002A813B812617370730F081E0DF91CF914C
:102160001F910F9108958B016F5F7F4F0E94B627DB
:10217000009759F0998388831B830A832C813D81C2
:10218000232B59F7FC011082E8CF80E0E7CFEF92D4
:10219000FF920F931F93CF93DF93EC017B018A0192
:1021A000BA010E949F1081110BC0CE010E94F90C50
:1021B000CE01DF91CF911F910F91FF90EF90089585
:1021C0001D830C83B701888199810E949028F0CFEC
:1021D000FB0101900020E9F73197AF01461B570B37
:1021E0000C94C710AF92BF92CF92DF92EF92FF9202
:1021F0000F931F93CF93DF93EC016B015A01790189
:102200002417350720F48B2D5901E42EF82E19825E
:1022100018821B821A821D821C8267EC71E0CE013B
:102220000E94E810D60114960D911C91A016B106DB
:1022300028F5E016F10608F48701D601ED91FC912E
:102240001197E00FF11FF08010826D917C916A0D63
:102250007B1D61157105F1F0FB0101900020E9F78C
:102260003197AF01461B570BCE010E94C710F601F4
:1022700080819181080F191FD801FC92CE01DF9156
:10228000CF911F910F91FF90EF90DF90CF90BF9073
:10229000AF900895CE010E94F90CE9CFEF92FF9222
:1022A0000F931F93CF93DF93EC018B011982188258
:1022B0001B821A821D821C82CB010E9497217C0105
:1022C000BC01CE010E949F10811109C0CE01DF9197
:1022D000CF911F910F91FF90EF900C94F90CFD821C
:1022E000EC82B80188819981DF91CF911F910F9184
:1022F000FF90EF900C9490212F923F924F925F921B
:102300006F927F928F929F92AF92BF92CF92DF9205
:10231000EF92FF920F931F93CF93DF93CDB7DEB76A
:1023200068970FB6F894DEBF0FBECDBF382E212CB4
:1023300022EA422E23E0522E712C612C862E912C03
:10234000B12CA12C8091B1040E942B04892B21F483
:102350008BEA94E00E94E60F8091A4040E942B0473
:10236000892B21F48EE994E00E94E60F8091AC0461
:102370008823A9F08091B4049091B504A091B6048B
:10238000B091B704892B8A2B8B2B49F0E091AF04D5
:10239000F091B004309719F08BEA94E009958091A0
:1023A0009F048823A9F08091A7049091A804A0918C
:1023B000A904B091AA04892B8A2B8B2B49F0E091B8
:1023C000A204F091A304309719F08EE994E00995E6
:1023D0008AED93E00E94E005892B09F48CC11C8AE8
:1023E0001B8A1E8A1D8A188E1F8A67EC71E0CE0137
:1023F00043960E94E8100E94A00597FD1BC08983A8
:102400001A820F89188D0F5F1F4FB801CE014396B6
:102410000E949F10882379F32B893C898F89988D9E
:10242000BE016F5F7F4F820F931F0E949028188F0D
:102430000F8BE1CF1A8219821C821B821E821D82A1
:102440006DEE71E0CE0101960E94E810BE016F5F53
:102450007F4FCE0143960E945410882359F0EB8998
:10246000FC898F89988DE80FF91F329711E08081E0
:10247000813209F010E0CE0101960E940B0D11236C
:1024800009F41BC363E375E08AED93E00E942C0519
:102490004F89588D70E060E02AE08AED93E00E9459
:1024A0009A0D65EC71E08AED93E00E94660D1E8640
:1024B0001D86188A1F861A8A198A6B897C8961157C
:1024C000710531F04F89588DCE010D960E94C710CD
:1024D00060E275E0CE0101960E944E11BE016F5F71
:1024E0007F4FCE010D960E945410182FCE010196F9
:1024F0000E940B0D112309F42DC148E050E06CE758
:10250000CE010D960E9438107C01FF24970148E00F
:1025100050E0BE01635F7F4FCE0107960E94F2102C
:102520006BE175E0CE0101960E944E11BE016F5F16
:102530007F4FCE0107960E946F10182FCE01019693
:102540000E940B0D1111F7C066E175E0CE010196F6
:102550000E944E11BE016F5F7F4FCE0107960E9411
:102560006F10182FCE0101960E940B0D1111E6C0BD
:1025700061E175E0CE0101960E944E11BE016F5FD0
:102580007F4FCE0107960E946F10182FCE01019643
:102590000E940B0D1111D5C06CE075E0CE010196C3
:1025A0000E944E11BE016F5F7F4FCE0107960E94C1
:1025B0006F10182FCE0101960E940B0D1111C4C08F
:1025C00067E075E0CE0101960E944E11BE016F5F7B
:1025D0007F4FCE0107960E946F10182FCE010196F3
:1025E0000E940B0D1111B3C062E075E0CE0101969F
:1025F0000E944E11BE016F5F7F4FCE0107960E9471
:102600006F10182FCE0101960E940B0D112309F4B3
:1026100066C004E810E06DEF74E0CE0101960E9400
:102620004E1189899A89E816F90670F4CD84DE8402
:1026300069817A81C6018E0D9F1D0E94A5287C01AB
:10264000EC18FD08892B19F4EE24EA94FE2CCE0137
:1026500001960E940B0D50E040E061E2CE010D9624
:102660000E94381044E04E0D50E09C01BE01635FB3
:102670007F4FCE0101960E94F210BE016F5F7F4F27
:10268000CE010D960E94290DCE0101960E940B0DE0
:1026900080E2F20111928A95E9F7E988FA886D855E
:1026A0007E85A70182EA93E00E947328F3E1EF168A
:1026B000F104A8F482EAE82E83E0F82ED12CC12C94
:1026C000F70161917F01C8018C0D9D1D0E940325BA
:1026D000FFEFCF1ADF0A84E1C816D10489F7CE01D3
:1026E00007960E940B0DCE010D960E940B0DCE0198
:1026F00043960E940B0DC501B4010E94E30423948C
:10270000321020CE68960FB6F894DEBF0FBECDBF54
:10271000DF91CF911F910F91FF90EF90DF90CF90BD
:10272000BF90AF909F908F907F906F905F904F90F1
:102730003F902F90089500E210E06DCF04E310E089
:102740006ACF08E410E067CF0CE510E064CF00E743
:1027500010E061CF64EF74E0CE0101960E944E114B
:10276000BE016F5F7F4FCE010D960E945410182F4F
:10277000CE0101960E940B0D112309F4E4C08BEEEB
:1027800094E00E94750DA3016AE3CE010D960E94AC
:102790003810182F50E040E061E2CE010D960E9403
:1027A00038109C0133271F5F412F50E0BE01635F4B
:1027B0007F4FCE0107960E94F2104B855C856F819A
:1027C00078858AED93E00E94500565EC71E08AED12
:1027D00093E00E94660D66EE74E0CE0101960E94C1
:1027E0004E11BE016F5F7F4FCE0107960E946F10A2
:1027F000182FCE0101960E940B0D111195C061EEAC
:1028000074E0CE0101960E944E11BE016F5F7F4FB2
:10281000CE0107960E946F10182FCE0101960E94DC
:102820000B0D111184C06CED74E0CE0101960E9475
:102830004E11BE016F5F7F4FCE0107960E946F1051
:10284000182FCE0101960E940B0D111173C067ED78
:1028500074E0CE0101960E944E11BE016F5F7F4F62
:10286000CE0107960E946F10182FCE0101960E948C
:102870000B0D111162C062ED74E0CE0101960E9451
:102880004E11BE016F5F7F4FCE0107960E946F1001
:10289000182FCE0101960E940B0D111151C06DEC45
:1028A00074E0CE0101960E944E11BE016F5F7F4F12
:1028B000CE0107960E946F10182FCE0101960E943C
:1028C0000B0D112309F40BCF04E810E067EC74E062
:1028D0008AED93E00E942C054B855C856F8178859D
:1028E0008AED93E00E94500565EC74E08AED93E078
:1028F0000E942C05F12CE12CC8018E0D9F1D0E9419
:10290000FB24882361F0682F8AED93E00E9425055F
:10291000EFEFEE1AFE0AF4E1EF16F10469F783EC2B
:1029200094E00E94750DDBCE00E210E0CFCF04E30F
:1029300010E0CCCF08E410E0C9CF0CE510E0C6CF22
:1029400000E710E0C3CF65EB74E0CE0101960E9472
:102950004E11BE016F5F7F4FCE010D960E94DE0CBF
:102960008C01CE0101960E940B0D012BE9F46BEA5C
:1029700074E08AED93E00E942C056FE974E08AED23
:1029800093E00E942C056DE974E08AED93E00E94CB
:102990002C0569E974E08AED93E00E942C0587E933
:1029A00094E00E94750D9FCE6BE874E0CE01019615
:1029B0000E944E11BE016F5F7F4FCE010D960E94A7
:1029C000DE0C8C01CE0101960E940B0D012BD1F47F
:1029D0006BE774E08AED93E00E942C050AE910E0B1
:1029E000C8010E94FB24882351F0682F8AED93E0F0
:1029F0000E9425050F5F1F4F043A110589F789E7EB
:102A000094E0CFCF6DE674E0CE0101960E944E11A6
:102A1000BE016F5F7F4FCE010D960E945410182F9C
:102A2000CE0101960E940B0D112309F45CCE50E0FB
:102A300040E061E2CE010D960E9438109C014BE00F
:102A400050E0BE01635F7F4FCE0101960E94F210FD
:102A5000BE016F5F7F4FCE010D960E94290DCE0102
:102A600001960E940B0D80E2F20111928A95E9F71E
:102A700009891A896D857E85A80182EA93E00E9402
:102A800073280B30110590F410E0812F90E0298914
:102A90003A898217930770F4FC01EE55FC4F608170
:102AA00086569F4F0E9403251F5FEFCF81E694E07B
:102AB0000E94750D8EE594E074CF89E295E00E9446
:102AC000750D15CE85ED8093BC008091FC02909130
:102AD000FD02A091FE02B091FF020796A11DB11D5B
:102AE00023E0B695A795979587952A95D1F72091DC
:102AF000BC0024FD03C01092450308954091FC02E0
:102B00005091FD026091FE027091FF02452B462B11
:102B1000472B69F30097A105B10541F02AE22A95F8
:102B2000F1F700C00197A109B109E1CF8091FB0243
:102B30000C94D4062F923F924F925F926F927F92A5
:102B40008F929F92AF92BF92CF92DF92EF92FF92BD
:102B50000F931F93CF93DF93CDB7DEB7CD54D10939
:102B60000FB6F894DEBF0FBECDBF2E968FAF2E9757
:102B7000A4ECEA2EA4E0FA2EB2EE2B2EB4E03B2E0B
:102B800011E8812E11E0912E6E012AE2C20ED11CB5
:102B9000CE0101965C0110929D0410929C0410924B
:102BA0009B0410928B0410928C0410928D0410924E
:102BB0008E0410928F04109290041092910410923F
:102BC000920410929304109294041092950410921F
:102BD000960410928704109288041092890410922F
:102BE0008A041092970410929804109299041092FB
:102BF0009A04F0928404E0928304D70111966C91B8
:102C000011971C911DA61CA688EE93E0A0E0B0E0F1
:102C10008EA79FA7A8ABB9AB9BA68AA622961FAE8C
:102C20001EAE229724961FAE1EAE249726961FAE88
:102C30001EAE269728961FAE1EAE289729968FADFA
:102C400029978E7F8D7F29968FAF2997C6010E9485
:102C50003609612FC6010E940D09D70112961C91F9
:102C60001D821C82C6010E949E098FEF810F883F42
:102C700008F018EF1E83DA82C98281E08B8388E333
:102C80008AA38FEF8BA38CA38DA38EA38FA388A77A
:102C900089A71F82B0928604A092850480E00E94DA
:102CA000DF0E10929D0410929C0480E00E94DF0EC3
:102CB00062E082E00E946D0C62E572E088EB94E0D5
:102CC0000E942C0563E084E00E946D0C60908504F6
:102CD00070908604C3010E94F40A882309F489C213
:102CE000F3014788508C618C728C4092930450920F
:102CF00094046092950470929604A3019201C3011A
:102D0000B2010E945B2681117BC2B301A20188EB54
:102D100094E00E94060E64E68AE00E947C1180E046
:102D20000E94DF0E62E082E00E946D0C6FEE71E0A7
:102D300088EB94E00E94D70E63E084E00E946D0C63
:102D40006090850470908604C3010E94F40A882371
:102D500009F46BC2D30117964D905D906D907C90F5
:102D60001A97409287045092880460928904709266
:102D70008A04A3019201C301B2010E945B26882349
:102D800009F45AC280919C0490919D0488609093AC
:102D90009D0480939C0480919B048F5F80939B048F
:102DA0006EE372E088EB94E00E942C0564E68AE012
:102DB0000E947C1180E00E94DF0E62E082E00E94AF
:102DC0006D0C6BEF71E088EB94E00E94D70E63E02E
:102DD00084E00E946D0C6090850470908604C301AD
:102DE0000E94F40A882309F42EC2F3014384548418
:102DF0006584768440928B0450928C0460928D049A
:102E000070928E04A3019201C301B2010E945B265D
:102E1000882309F41FC280919C0490919D048460D2
:102E200090939D0480939C0480919B048F5F80937A
:102E30009B0464E372E088EB94E00E942C0564E656
:102E40008AE00E947C1180E00E94DF0E62E082E056
:102E50000E946D0C66E072E088EB94E00E94D70E51
:102E600063E084E00E946D0C60908504709086049D
:102E7000C3010E94F40A882309F4F3C1D3011F9609
:102E80004D905D906D907C90529740929704509237
:102E900098046092990470929A04A3019201C3016C
:102EA000B2010E945B26882309F4E2C180919C0450
:102EB00090919D04826090939D0480939C048091E6
:102EC0009B048F5F80939B046AE272E088EB94E03E
:102ED0000E942C0564E68AE00E947C1180E00E943A
:102EE000DF0E62E082E00E946D0C62E172E088EB2E
:102EF00094E00E94D70E63E084E00E946D0C609025
:102F0000850470908604C3010E94F40A882309F4A2
:102F1000B6C1F301438854886588768840928F044F
:102F2000509290046092910470929204A3019201D5
:102F3000C301B2010E945B26882309F4A7C18091D6
:102F40009C0490919D04806290939D0480939C04C6
:102F500080919B048F5F80939B0460E272E088EB1A
:102F600094E00E942C0564E68AE00E947C11809126
:102F70009B04882309F491C10E949A0F61E081E0CB
:102F80000E946D0C64EE71E088EB94E00E942C05C9
:102F900080919B040E94E60D62E081E00E946D0C2E
:102FA0003AE6432E31E0532E42E0742E00E0D20187
:102FB0001D912D0180919C048123181320C00330A2
:102FC00029F47394672D81E00E946D0CE12FE2508B
:102FD000FF0BCF0163ED71E07F9738F4880F991FE5
:102FE000FC01E45DFE4F6081718188EB94E00E94FA
:102FF0002C056CE172E088EB94E00E94D70E0F5F25
:103000000530A9F664E684E10E947C118091970363
:10301000909198030597F9F480919C0490919D04F8
:10302000892BC9F083E00E94DF0E62E081E00E94FC
:103030006D0C6FE072E088EB94E00E942C050E941A
:10304000B00F63E084E00E946D0C69E072E088EBF1
:1030500094E00E942C058091970390919803049727
:1030600009F092C083E00E94DF0E62E081E00E94DE
:103070006D0C67EF71E088EB94E00E942C052E96B2
:103080003FAD2E97332309F475C080919C04909135
:103090009D04892B09F0D5C162EC71E08AED93E0C3
:1030A0000E942C05E0918304F09184046381748173
:1030B0008AED93E00E94D70E6EEB71E08AED93E00B
:1030C0000E942C05409193045091940460919504C2
:1030D000709196048AED93E00E94060E6AEB71E00F
:1030E0008AED93E00E942C0540918704509188045A
:1030F0006091890470918A048AED93E00E94060E23
:1031000066EB71E08AED93E00E942C0540918B0400
:1031100050918C0460918D0470918E048AED93E03F
:103120000E94060E62EB71E08AED93E00E942C058E
:1031300040919704509198046091990470919A0479
:103140008AED93E00E94060E6CEA71E08AED93E04E
:103150000E942C0540918F0450919004609191043D
:10316000709192048AED93E00E94060E84ED91E046
:103170000E94EF0D63E084E00E946D0C61EF71E04E
:1031800088EB94E00E942C0564E68AE00E947C11A2
:1031900064E688E20E947C1180919603811154C1FB
:1031A000C5010E94130D9BA68AA6C6010E945F0955
:1031B00085E0E80EF11C2E143F0409F0ECCCC35B53
:1031C000DF4F0FB6F894DEBF0FBECDBFDF91CF91BA
:1031D0001F910F91FF90EF90DF90CF90BF90AF9035
:1031E0009F908F907F906F905F904F903F902F9027
:1031F0000895412C512CF0EC6F2EFFE77F2E75CDFA
:1032000080919C0490919D04806190939D04809393
:103210009C0480919B048F5F80939B0468E472E020
:1032200088EB94E00E942C0576CD412C512CE0ECEB
:103230006E2EEFE77E2E95CDB301A20188EB94E0D0
:103240000E94060EB3CD412C512C70EC672E7FE707
:10325000772ED0CDB301A20188EB94E00E94060E38
:10326000EECD412C512C60EC662E6FE7762E0DCE04
:10327000B301A20188EB94E00E94060E2BCE412CF4
:10328000512C50EC652E5FE7752E48CEB301A2019C
:1032900088EB94E00E94060E66CE0E949A0F0E9470
:1032A000C80C60919304709194048091950490915E
:1032B00096040EEC13E021E040E00E947221609140
:1032C0008704709188048091890490918A0402ECAB
:1032D00013E021E040E00E947221C8019F930F9308
:1032E0008EEC93E09F938F938EE192E09F938F9368
:1032F00082EA93E09F938F930E94BF2861E081E070
:103300000E946D0C62EA73E088EB94E00E94D70E95
:103310000E94C80C60918B0470918C0480918D0484
:1033200090918E040EEC13E021E040E00E947221A7
:103330008091970490919804A0919904B0919A0477
:103340002D968CAF9DAFAEAFBFAF2D970FB6F89453
:10335000DEBF0FBECDBF20E030E04AE754E42D963B
:103360006CAD7DAD8EAD9FAD2D970E945626412C44
:10337000512C90E8692E9FE3792E181634F4412CD5
:10338000512C8AE7682E84E4782EA30192012D96B1
:103390006CAD7DAD8EAD9FAD2D970E94B52502EC35
:1033A00013E021E040E00E94722120E030E04AE793
:1033B00054E4C301B2010E94D723811137C0C80170
:1033C0009F930F938EEC93E09F938F938CE292E008
:1033D0009F938F9382EA93E09F938F930E94BF28DD
:1033E0000FB6F894DEBF0FBECDBF62E081E00E9451
:1033F0006D0C62EA73E088EB94E00E94D70E63E004
:1034000081E00E946D0C6DEC71E088EB94E00E940D
:103410002C0540918F04509190046091910470911B
:10342000920488EB94E00E94060EECCD82EC93E0CF
:103430009F938F938EEC93E09F938F938BE392E017
:10344000C7CF0E94B00F96CEC5010E94130D81E830
:1034500091E09BA78AA7C6010E945F09B0CE1F9288
:103460000F920FB60F9211242F933F938F939F9338
:10347000AF93BF9380919A0390919B03A0919C037B
:10348000B0919D033091990323E0230F2D3758F518
:103490000196A11DB11D2093990380939A039093E7
:1034A0009B03A0939C03B0939D0380919E039091F6
:1034B0009F03A091A003B091A1030196A11DB11D8E
:1034C00080939E0390939F03A093A003B093A103C6
:1034D000BF91AF919F918F913F912F910F900FBE10
:1034E0000F901F90189526E8230F0296A11DB11D7D
:1034F000D2CF1F920F920FB60F9211242F933F93AA
:103500004F935F936F937F938F939F93AF93BF93EB
:10351000EF93FF938AED93E00E940006FF91EF91F5
:10352000BF91AF919F918F917F916F915F914F91DB
:103530003F912F910F900FBE0F901F9018951F92E3
:103540000F920FB60F9211242F938F939F93EF93A7
:10355000FF93E091EA03F091EB038081E091F003A7
:10356000F091F10382FD1BC090818091F3038F5F86
:103570008F732091F403821741F0E091F303F0E0A0
:10358000E652FC4F958F8093F303FF91EF919F914B
:103590008F912F910F900FBE0F901F9018958081E3
:1035A000F4CF1F920F920FB60F9211242F933F93D7
:1035B0004F935F936F937F938F939F93AF93BF933B
:1035C000EF93FF938091B900887F803609F44AC059
:1035D000F0F5883209F4A7C018F5803109F49BC0D2
:1035E000B8F4882309F4F9C0883009F494C0FF9135
:1035F000EF91BF91AF919F918F917F916F915F916B
:103600004F913F912F910F900FBE0F901F901895E3
:10361000883109F488C0803251F78093440314C084
:10362000803409F49DC040F48033B9F38833F9F64F
:103630008093440385ECB0C0803509F485C088359B
:1036400009F496C0883499F60E946215D0CF883963
:1036500009F48CC038F5883729F050F4883611F019
:10366000803729F683E0809345031092430357C0C7
:10367000883809F47BC0803919F0803809F0B7CF59
:1036800080914303803208F071C0E091430381E0F0
:103690008E0F809343038091BB00F0E0ED5DFC4F03
:1036A00080833DC0803B39F0E0F4803A09F479C072
:1036B000883A09F09CCF84E080934503109222035E
:1036C00010922103E0918603F09187030995809180
:1036D000210381110FC081E0809321031092010327
:1036E00009C0803C09F4A6CF883C09F4A3CF883BED
:1036F00009F07DCFE091220381E08E0F80932203B9
:10370000F0E0EF5FFC4F80818093BB00909122033B
:103710008091210329C080916A038093BB0085ECCE
:103720008093BC0064CF90916903809168039817DF
:1037300058F5E091690381E08E0F80936903F0E012
:10374000E85BFC4F8081E9CFE091690381E08E0F57
:10375000809369038091BB00F0E0E85BFC4F8083BD
:1037600090916903809168039817C8F285E8D8CFD3
:10377000E091690381E08E0F809369038091BB0023
:10378000F0E0E85BFC4F80838091470381115CCFC0
:1037900081E08093460384EA8093BC001092450345
:1037A00026CF85EC8093BC001092450380914303A3
:1037B000803230F4E0914303F0E0ED5DFC4F108285
:1037C0006091430370E0E0918403F091850383E20C
:1037D00093E00995109243030ACF1092440334CF2B
:1037E0001F920F920FB60F9211242F933F934F9376
:1037F0005F936F937F938F939F93AF93BF93EF9359
:10380000FF93E091B702F091B802309749F0A68596
:10381000B7858585968D91FF14C09C918923A1F46D
:10382000FF91EF91BF91AF919F918F917F916F9198
:103830005F914F913F912F910F900FBE0F901F906E
:1038400018959C91892361F7A389B4899C918589F6
:10385000809589238C93868997890197F1F7608DEC
:10386000718DA685B785558538E020E0CB0101979D
:10387000F1F7822F90E095958795282F4C9145235D
:1038800009F02068315091F7868D81FD2095809157
:10389000B50290E001968F7399273091B6023817E0
:1038A00099F0A091B502B0E0AB58BD4F2C93809336
:1038B000B502828D938D0197F1F7A389B4898C911C
:1038C0009589892B8C93ACCF868D8160868FF1CFC3
:1038D0001F93CF93DF93EAEDF3E01382128288EE19
:1038E00093E0A0E0B0E084839583A683B78329E9C1
:1038F00031E03183208325EC30E03587248724ECC8
:1039000030E03787268720EC30E0318B208B21ECAC
:1039100030E0338B228B22EC30E0358B248B26EC8D
:1039200030E0378B268B118E128E138E148EE7E7C4
:10393000F4E01382128284839583A683B7838BEA93
:1039400091E091838083E9E1F1E088E0808389E080
:103950008183E4E1F1E086E0808387E08183EFE02A
:10396000F1E084E0808395E09183EAE0F1E092E089
:10397000908393E09183E5E0F1E09AE090839BE00F
:103980009183E0E0F1E09EE090839FE0918395E0F9
:10399000E9E1F1E0A4ECB4E001900D929A95E1F731
:1039A00095E0E4E1F1E0A9ECB4E001900D929A9584
:1039B000E1F795E0EFE0F1E0AEECB4E001900D92BC
:1039C0009A95E1F795E0EAE0F1E0A3EDB4E001902B
:1039D0000D929A95E1F795E0E5E0F1E0A8EDB4E00D
:1039E00001900D929A95E1F795E0E0E0F1E0ADED00
:1039F000B4E001900D929A95E1F7E8EBF4E01382C0
:103A000012822DEB31E03183208397E2948394E19D
:103A1000918782871386CBEAD4E0188211E019835C
:103A200019861A861B861C8680E18E8389E492E0C3
:103A300098878F8362E080E10E94820419861A864B
:103A40001B861C86CEE9D4E01882198319861A8653
:103A50001B861C8681E18E838FE492E098878F839A
:103A600062E081E10E94820419861A861B861C8608
:103A700010929D0410929C04DF91CF911F910895A4
:103A8000CF93DF93CDB7DEB7C854D1090FB6F89402
:103A9000DEBF0FBECDBF789484B5826084BD84B58F
:103AA000816084BD85B5826085BD85B5816085BD39
:103AB00080916E00816080936E00109281008091F1
:103AC0008100826080938100809181008160809379
:103AD0008100809180008160809380008091B1009E
:103AE00084608093B1008091B00081608093B000C9
:103AF00080917A00846080937A0080917A0082605D
:103B000080937A0080917A00816080937A0080911E
:103B10007A00806880937A001092C10081E090E082
:103B20009093980380939703E091EA03F091EB035D
:103B300082E08083E091E603F091E7031082E09158
:103B4000E803F091E90387E680831092F203E091A5
:103B5000EE03F091EF0386E08083E091EC03F091B7
:103B6000ED03808180618083E091EC03F091ED03AF
:103B7000808188608083E091EC03F091ED03808187
:103B800080688083E091EC03F091ED0380818F7D6C
:103B900080836BED73E08AED93E00E942C052AE0B0
:103BA00040E450E060E070E08AED93E00E949A0DFE
:103BB00065EC71E08AED93E00E94660D10928B0334
:103BC00010928A0310928903109288030E94B6060D
:103BD00082E295E0909387038093860383E295E0E9
:103BE00090938503809384031092BD048091C20456
:103BF000823018F098E09093BD048093C00462E393
:103C000070E080E090E00E94E3046091C30488EBE0
:103C100094E00E947B0768EE73E080E090E00E94F1
:103C2000E30460E388EB94E00E943D0C0BE416E4AF
:103C3000C8010197F1F760E388EB94E00E943D0C26
:103C4000C8010197F1F760E388EB94E00E943D0C16
:103C500083E592E00197F1F760E288EB94E00E943F
:103C60003D0C6091BD04606240E088EB94E00E94EE
:103C7000560C84E08093BE0440E06CE088EB94E056
:103C80000E94560C0E94B70C82E08093BF0440E073
:103C900066E088EB94E00E94560C40E062E088EB1E
:103CA00094E00E94560C8BE39FE10197F1F788E0C6
:103CB0008093C30460E088EB94E00E947B0710923D
:103CC0008C0360E080E00E946D0C69EB72E088EB91
:103CD00094E00E942C0560918C036F5F60938C03CD
:103CE00080E00E946D0C61EB72E088EB94E00E9432
:103CF0002C056FE974E088EB94E00E942C0560913C
:103D00008C036F5F60938C0382E00E946D0C67EA06
:103D100072E088EB94E00E942C0569E974E088EB7E
:103D200094E00E942C0563E082E00E946D0C61EA41
:103D300072E088EB94E00E942C05E2EAF3E080E276
:103D4000DF011D928A95E9F77F010AE910E0C801B9
:103D50000E94FB24F70181937F010F5F1F4F043AFC
:103D60001105A9F762EA73E088EB94E00E94D70E90
:103D700060EA7FE080E090E00E94E3040E94B70CDC
:103D800060E080E00E946D0C68E273E088EB94E0F4
:103D90000E942C0574ECE72E74E0F72EE2EE6E2EF6
:103DA000E4E07E2EF8EE2F2EF3E03F2E412C512C36
:103DB000A1E88A2EA1E09A2E6E01FAE2CF0ED11C64
:103DC000B8E3AB2E1FEFD70113968D919C910E9403
:103DD000EF0D61E081E00E946D0C61E273E088EB21
:103DE00094E00E942C05F7016381748188EB94E0D4
:103DF0000E94D70E6AE173E088EB94E00E942C05E4
:103E0000D70112968C910E94E60D62E084E00E9438
:103E10006D0C61E173E088EB94E00E942C05F701E2
:103E200080810E94E60D63E084E00E946D0C68E0F2
:103E300073E088EB94E00E942C05D70111968C91D9
:103E40000E94E60DF701618100811DA61CA62EA629
:103E50003FA648AA59AA9BA68AA622961FAE1EAEC6
:103E6000229724961FAE1EAE249726961FAE1EAE36
:103E7000269728961FAE1EAE289729968FAD2997B4
:103E80008E7F8D7F29968FAF2997C6010E943609B4
:103E9000602FC6010E940D091D821C82C6010E946E
:103EA0009E09F8EFFE83DA82C98281E08B83AAA2A1
:103EB0001BA31CA31DA31EA31FA318A719A71F8222
:103EC000D70112968C91883F09F454C00E94B70C18
:103ED00060E080E00E946D0C64EF72E088EB94E09B
:103EE0000E942C0561E082E00E946D0C6DEE72E094
:103EF00088EB94E00E942C05F7016381748188EBC4
:103F000094E00E94D70E62E082E00E946D0C65EEA4
:103F100072E088EB94E00E942C0588EF0E94E60D89
:103F200061EE72E088EB94E00E942C05D7011296B6
:103F30008C910E94E60D63E084E00E946D0CF70115
:103F4000B2808FEF8B0D873F08F0D3C02B2D30E070
:103F500001E042E050E066E0CE0101960E94870A4F
:103F6000882309F4C6C0BE8265ED72E088EB94E058
:103F70000E942C0564E68AE00E947C11CE01019625
:103F80000E94130D9BA68AA6C6010E945F09F5E058
:103F9000EF0EF11C6E147F0409F015CF60ED77E091
:103FA00080E090E00E94E3040E94B70C90E080E083
:103FB0000E94FB24182F81E090E00E94FB241A3A13
:103FC00009F49AC0853509F497C082E493E00E9411
:103FD000750D10E000E060E0C8010E9403250F5F4E
:103FE0001F4F011524E01207B1F76AEA90E080E064
:103FF0000E94032565E581E090E00E94032589E3A6
:1040000093E00E94750D8DEC93E00E94750D81E0A8
:104010000E94DF0E62E083E00E946D0C6FEB73E0A4
:1040200088EB94E00E942C0582E59FE09093AE041B
:104030008093AD0487E09CE09093B0048093AF043C
:1040400088E89DE09093A1048093A0048CE89DE013
:104050009093A3048093A2048AEA93E00E94750DD2
:104060004FE8E42E41E0F42E55E9C52E51E0D52E5F
:1040700062EAA62E63E0B62E00E2D501E02F1D9283
:10408000EA95E9F7D7011D917D0132EA632E33E00D
:10409000732E812F90E0FC01E25AF3404F01C401DE
:1040A000860D971D0E94FB24D3018D933D01B6EB35
:1040B0006B16B3E07B0699F70E94B70C60E080E0D6
:1040C0000E946D0C6AEA73E088EB94E00E942C0574
:1040D000183409F4B8C098F4103201F1143309F41B
:1040E000ABC06BE773E08AED93E00E942C0560E0C3
:1040F00020C068EC72E03ACF84E693E082CF1037BC
:1041000009F4A8C0143809F4ACC01C3551F761E0BB
:1041100080E00E946D0C62E973E006C061E080E01F
:104120000E946D0C64EA73E088EB94E00E942C0519
:1041300061E06F5F81E00E946D0C62EA73E088EBE2
:1041400094E00E94D70E68EE73E080E090E00E9459
:10415000E304CE14DF0409F090CF60ED77E080E057
:1041600090E00E94E3041092C30460E088EB94E0C6
:104170000E947B0700E010E084E0E82EF12C92E042
:10418000C92ED12C25E0A22EB12C40908D03509049
:104190008E0360908F03709090034114510461046A
:1041A000710409F065C00E94160560938D03709339
:1041B0008E0380938F0390939003F0929803E09284
:1041C000970381E00E949A150E9416054090910382
:1041D0005090920360909303709094036419750952
:1041E00086099709603C744D8140910508F45FC0D1
:1041F0000E9416056093910370939203809393033A
:1042000090939403B0929803A092970380E00E9449
:104210009A1580919603882309F449C01092960359
:104220000115110509F4B1CF0E94EC05882309F4AA
:10423000ACCF0E940000A9CF61E080E00E946D0C2D
:104240006EE973E071CF61E080E00E946D0C68E977
:1042500073E06ACF61E080E00E946D0C6CE873E06F
:1042600063CF61E080E00E946D0C66E873E05CCF94
:104270000E941605641975098609970960347E47FE
:104280008540910508F4A0CF0E94160560938D0328
:1042900070938E0380938F039093900360939103A8
:1042A00070939203809393039093940386CFD0925C
:1042B0009803C092970382E00E94DF0E6AE084E6D2
:1042C0000E947C1180919503883031F483EF93E054
:1042D0000E94750D10929503809195038F5F8093D6
:1042E00095039ECFEF920F931F93CF93DF93E80137
:1042F00034E047FD34E1042E000C550B57FF03C09A
:10430000519541955109E32E022F242FAE010E94B1
:10431000A021CE01DF91CF911F910F91EF900895D1
:10432000FB01DC0105900D920020E1F70895FC01EE
:1043300005900020E9F7809590958E0F9F1F0895B6
:10434000A9E0B0E0E6EAF1E20C9417256A01F22E4A
:10435000B02E102FFBE3AF2EA01608F41BE31F5F57
:10436000012F27E0AE014F5F5F4F0E94FF22BC018B
:104370008981982F9970913009F43FC09BE2E1FC4C
:1043800004C09E2D9170E0FC3AC05E2D5071E82F64
:10439000E87083FF46C084E0911101C083E0EF2DF7
:1043A000E81B8F1508F0E0E0D6018E2F20E25523A0
:1043B00051F1992329F0D6019C93C60101966C0115
:1043C00096012D5F3F4FE2FE24C08EE4D6018C9310
:1043D00091E411969C93119712968C93D9018E2F8C
:1043E00090E281111BC0E20FF32FF11D10828EEFBE
:1043F0009FEF2996ECE00C9433259DE2C6CF90E226
:10440000C4CF2D9381508111FCCFCE0ED11CE0E0A2
:10441000D0CF8EE6D6018C9391E6DBCF9D93815071
:10442000E0CF482F447082FF3DC084E0911101C06D
:1044300083E08F1510F4EF2DE81BD6018E2F20E2BC
:10444000552309F1992329F0D6019C93C6010196C1
:104450006C0196012D5F3F4FE2FE1BC089E4D6013F
:104460008C938EE411968C93119786E412968C931C
:10447000D9018E2F90E2882309F4B5CF9D93815006
:10448000FACF2D9381508111FCCFCE0ED11CE0E0EC
:10449000D9CF89E6D6018C938EE611968C9311972D
:1044A00086E6E4CF9B0177FF02C030E020E0A1E088
:1044B000B0E0911102C0B0E0A0E0F9013196AE0F7A
:1044C000BF1F8B2C912CBB2009F461C05401EFEF6E
:1044D000AE1ABE0AAA0DBB1DFA161B0619F014F07F
:1044E0004F2D4A1B511188C0E3FC59C07601A42FFF
:1044F000B0E2A1114FC0C40ED11C992309F45BC0D6
:1045000040E0D6011196F60190836D01552309F420
:1045100048C0012F060F9A81582F507184FF03C0A5
:10452000913309F4015010160CF047C0093008F01F
:1045300008E0EEE2FE2E5B01A01AB108850191941D
:10454000819491082F3F320729F4D601FC92F6019D
:1045500031966F016217730794F1021713077CF508
:10456000DB01A21BB30BAA24A394B12CAC0EBD1E7D
:10457000AA0DBB1D11968C9121503109D6011196BF
:1045800028153905F4F0F60180836D01DBCFB12CDD
:10459000A12CA0CFF701B1937F01A150AACF911117
:1045A000B0CFD601942F50E302C05D93915091118A
:1045B000FCCFC40ED11C40E0ACCF01E0BACF80E309
:1045C000DBCF6217730731F4963388F4953311F417
:1045D000552369F0F6018083FD01842F90E281115B
:1045E00008C0A40FB11D1C9290E080E002CF81E3CF
:1045F000F1CF91938150F3CF911183CF8ACF28309F
:1046000008F027E03327DA01990F311D87FD91600B
:1046100000966105710539F432602E5F3D9330E3F9
:104620002A95E1F708959F3F30F0803871056105C4
:1046300009F03C5F3C5F3D93913008F08068911D2C
:10464000DF93CF931F930F93FF92EF92192F987FD1
:104650009695E92F96959695E90FFF27EE53FF4F14
:1046600099273327EE24FF24A701E701059008943A
:10467000079428F4360FE71EF81E491F511D660FD8
:10468000771F881F991F0694A1F70590079428F4B7
:10469000E70EF81E491F561FC11D770F881F991F6F
:1046A000661F0694A1F70590079428F4F80E491F99
:1046B000561FC71FD11D880F991F661F771F0694AD
:1046C000A1F70590079420F4490F561FC71FD81F64
:1046D000990F661F771F881F0694A9F7849110957C
:1046E000177041F0D695C79557954795F794E7947D
:1046F0001A95C1F7E8E6F0E06894159015913591A8
:104700006591959105907FE27395E118F10A430B4D
:10471000560BC90BD009C0F7E10CF11E431F561F01
:10472000C91FD01D7EF4703311F48A95E6CFE8944A
:10473000015030F0080F0AF40027021708F4202F68
:104740002395022F7A3328F079E37D932A95E9F7B0
:1047500010C07D932A9589F60694979567953795AD
:1047600017951794E118F10A430B560BC90BD009A2
:1047700098F023957E9173957A3308F070E37C93DB
:104780002013B8F77E9170617D9330F0839571E3CB
:104790007D9370E32A95E1F71124EF90FF900F913C
:1047A0001F91CF91DF91992787FD909508950E94E1
:1047B000192408F481E00895E89409C097FB3EF4B9
:1047C00090958095709561957F4F8F4F9F4F99235E
:1047D000A9F0F92F96E9BB279395F69587957795DC
:1047E0006795B795F111F8CFFAF4BB0F11F460FF9C
:1047F0001BC06F5F7F4F8F4F9F4F16C0882311F0F4
:1048000096E911C0772321F09EE8872F762F05C007
:10481000662371F096E8862F70E060E02AF09A95A2
:10482000660F771F881FDAF7880F9695879597F997
:104830000895990F0008550FAA0BE0E8FEEF161631
:104840001706E807F907C0F012161306E407F50784
:1048500098F0621B730B840B950B39F40A2661F0F8
:10486000232B242B252B21F408950A2609F4A1409B
:10487000A6958FEF811D811D08950E9450240C94F0
:10488000C1240E94B32438F00E94BA2420F095235A
:1048900011F00C94AA240C94B02411240C94F52447
:1048A0000E94D22470F3959FC1F3950F50E0551FDD
:1048B000629FF001729FBB27F00DB11D639FAA2775
:1048C000F00DB11DAA1F649F6627B00DA11D661FC4
:1048D000829F2227B00DA11D621F739FB00DA11DE5
:1048E000621F839FA00D611D221F749F3327A00D9F
:1048F000611D231F849F600D211D822F762F6A2F3B
:1049000011249F5750409AF0F1F088234AF0EE0F9F
:10491000FF1FBB1F661F771F881F91505040A9F7CC
:104920009E3F510580F00C94AA240C94F5245F3F1F
:10493000E4F3983ED4F3869577956795B795F79508
:10494000E7959F5FC1F7FE2B880F911D9695879580
:1049500097F9089597F99F6780E870E060E00895FF
:104960009FEF80EC089500240A9416161706180687
:104970000906089500240A94121613061406050663
:104980000895092E0394000C11F4882352F0BB0FF4
:1049900040F4BF2B11F460FF04C06F5F7F4F8F4F57
:1049A0009F4F089557FD9058440F551F59F05F3F92
:1049B00071F04795880F97FB991F61F09F3F79F041
:1049C00087950895121613061406551FF2CF4695C3
:1049D000F1DF08C0161617061806991FF1CF869545
:1049E0007105610508940895E894BB276627772729
:1049F000CB0197F90895F999FECF92BD81BDF89A40
:104A0000992780B50895262FF999FECF1FBA92BD38
:104A100081BD20BD0FB6F894FA9AF99A0FBE01969F
:104A200008952F923F924F925F926F927F928F9252
:104A30009F92AF92BF92CF92DF92EF92FF920F932D
:104A40001F93CF93DF93CDB7DEB7CA1BDB0B0FB637
:104A5000F894DEBF0FBECDBF09942A8839884888F4
:104A60005F846E847D848C849B84AA84B984C8848A
:104A7000DF80EE80FD800C811B81AA81B981CE0F81
:104A8000D11D0FB6F894DEBF0FBECDBFED01089566
:104A90005058BB27AA270E9460250C94C1240E946D
:104AA000B32438F00E94BA2420F039F49F3F19F45F
:104AB00026F40C94B0240EF4E095E7FB0C94AA24A1
:104AC000E92F0E94D22458F3BA17620773078407AC
:104AD000950720F079F4A6F50C94F4240EF4E095F3
:104AE0000B2EBA2FA02D0B01B90190010C01CA01A8
:104AF000A0011124FF27591B99F0593F50F4503E53
:104B000068F11A16F040A22F232F342F4427585F44
:104B1000F3CF469537952795A795F0405395C9F75C
:104B20007EF41F16BA0B620B730B840BBAF0915014
:104B3000A1F0FF0FBB1F661F771F881FC2F70EC0B3
:104B4000BA0F621F731F841F48F487957795679586
:104B5000B795F7959E3F08F0B0CF9395880F08F072
:104B60009927EE0F9795879508950E94C9250C9473
:104B7000C1240E94BA2458F00E94B32440F029F4C2
:104B80005F3F29F00C94AA2451110C94F5240C9445
:104B9000B0240E94D22468F39923B1F3552391F3F2
:104BA000951B550BBB27AA2762177307840738F09C
:104BB0009F5F5F4F220F331F441FAA1FA9F335D0F9
:104BC0000E2E3AF0E0E832D091505040E695001CAD
:104BD000CAF72BD0FE2F29D0660F771F881FBB1F67
:104BE000261737074807AB07B0E809F0BB0B802D45
:104BF000BF01FF2793585F4F3AF09E3F510578F071
:104C00000C94AA240C94F5245F3FE4F3983ED4F36B
:104C1000869577956795B795F7959F5FC9F7880F44
:104C2000911D9695879597F90895E1E0660F771F96
:104C3000881FBB1F621773078407BA0720F0621B27
:104C4000730B840BBA0BEE1F88F7E09508950E9452
:104C5000DA2488F09F5798F0B92F9927B751B0F010
:104C6000E1F0660F771F881F991F1AF0BA95C9F7F0
:104C700014C0B13091F00E94F424B1E008950C9476
:104C8000F424672F782F8827B85F39F0B93FCCF329
:104C9000869577956795B395D9F73EF4909580956D
:104CA000709561957F4F8F4F9F4F08950E941924F3
:104CB00008F48FEF08950E941924880B990B08952A
:104CC000A1E21A2EAA1BBB1BFD010DC0AA1FBB1F10
:104CD000EE1FFF1FA217B307E407F50720F0A21B82
:104CE000B30BE40BF50B661F771F881F991F1A94EF
:104CF00069F760957095809590959B01AC01BD0119
:104D0000CF0108952A153B054C055D056E057F050D
:104D1000800791070895EE0FFF1F0590F491E02D95
:104D200009940F931F93CF93DF938230910510F472
:104D300082E090E0E091E404F091E50430E020E0CE
:104D4000B0E0A0E0309799F42115310509F44AC08C
:104D5000281B390B24303105D8F58A819B816115D8
:104D6000710589F1FB0193838283FE0111C04081AB
:104D700051810281138148175907E0F048175907FC
:104D800099F4109761F012960C93129713961C9356
:104D90003296CF01DF91CF911F910F91089500932B
:104DA000E4041093E504F4CF2115310551F04217C6
:104DB000530738F0A901DB019A01BD01DF01F801B9
:104DC000C1CFEF01F9CF9093E5048093E404CDCFF8
:104DD000FE01E20FF31F8193919322503109398331
:104DE0002883D7CF2091E2043091E304232B41F4B0
:104DF00020912001309121013093E3042093E204BB
:104E000020911E0130911F012115310541F42DB76C
:104E10003EB74091220150912301241B350BE091B4
:104E2000E204F091E304E217F307A0F42E1B3F0B1A
:104E30002817390778F0AC014E5F5F4F241735070C
:104E400048F04E0F5F1F5093E3044093E2048193B8
:104E500091939FCFF0E0E0E09CCFCF93DF9300975A
:104E6000E9F0FC01329713821282A091E404B09120
:104E7000E504ED0130E020E01097A1F420813181BC
:104E8000820F931F2091E2043091E3042817390721
:104E900009F061C0F093E304E093E204DF91CF9165
:104EA0000895EA01CE17DF07E8F54A815B819E018C
:104EB00041155105B1F7E901FB83EA834991599105
:104EC000C40FD51FEC17FD0761F480819181029614
:104ED000840F951FE90199838883828193819B8345
:104EE0008A83F0E0E0E012968D919C9113970097F1
:104EF000B9F52D913C911197CD010296820F931F28
:104F00002091E2043091E3042817390739F63097ED
:104F100051F51092E5041092E404B093E304A093D9
:104F2000E204BCCFD383C28340815181840F951F9B
:104F3000C817D90761F44E5F5F4F88819981480F88
:104F4000591F518340838A819B81938382832115DA
:104F5000310509F0B0CFF093E504E093E4049ECF6F
:104F6000FD01DC01C0CF13821282D7CFB0E0A0E0F8
:104F7000ECEBF7E20C9413258C01009751F4CB0174
:104F80000E9491268C01C801CDB7DEB7E0E10C94F8
:104F90002F25FC01E60FF71F9C0122503109E21773
:104FA000F30708F49DC0D901CD91DC911197C61784
:104FB000D70798F0C530D10530F3CE010497861796
:104FC000970708F3C61BD70B2297C193D1936D9314
:104FD0007C93CF010E942D27D6CF5B01AC1ABD0A6E
:104FE0004C018C0E9D1EA091E404B091E504512C5F
:104FF000412CF12CE12C109731F58091E204909135
:10500000E3048815990509F05CC04616570608F0B8
:1050100058C080911E0190911F01009741F48DB7F7
:105020009EB74091220150912301841B950BE817F4
:10503000F90708F055C0F093E304E093E204F901A6
:1050400071836083A0CF8D919C91119712966C9083
:10505000129713967C901397A815B90559F56C0112
:1050600042E0C40ED11CCA14DB0420F1AC014A1981
:105070005B09DA011296159780F062827382518380
:105080004083D9016D937C93E114F10471F0D70151
:105090001396FC93EE93129776CF22968C0F9D1F5A
:1050A000F90191838083F301EFCFF093E504E0935E
:1050B000E40469CF4816590608F42C017D01D30198
:1050C0009ACFCB010E9491267C01009749F0AE0156
:1050D000B8010E947328C8010E942D27870153CF71
:1050E00010E000E050CFFB01DC0102C001900D9206
:1050F00041505040D8F70895FC018191861721F066
:105100008823D9F7992708953197CF010895FB0196
:10511000DC018D91019080190110D9F3990B08954C
:10512000FB01DC0101900D920020E1F70895FB01E5
:10513000DC014150504030F08D910190801919F4FC
:105140000020B9F7881B990B0895FB015191552355
:10515000A9F0BF01DC014D9145174111E1F759F468
:10516000CD010190002049F04D9140154111C9F346
:10517000FB014111EFCF81E090E001970895AEE08F
:10518000B0E0E5ECF8E20C941F250D891E8986E05D
:105190008C831A8309838FEF9FE79E838D83AE01F3
:1051A000475E5F4F6F89788DCE0101960E94E2289D
:1051B0002F813885020F131FF80110822E96E4E02C
:1051C0000C943B25ABE0B0E0E8EEF8E20C9411253E
:1051D0007C013B018A01FC0117821682838181FFD9
:1051E000C8C1CE0101965C01F7019381F30193FDE3
:1051F000859193FF81913F01882309F453C1853242
:1052000039F493FD859193FF81913F01853229F413
:10521000B70190E00E94D22AE7CF912C212C312CAB
:10522000FFE1F31538F08B3211F190F4803209F17F
:10523000833229F137FC3CC020ED280F2A3050F58D
:1052400036FE20C08AE0989E200D1124922E06C0C2
:105250008D3291F0803371F7689430F8F30193FD4B
:10526000859193FF81913F018111DACF21C068942C
:1052700031F8689432F8F2CF689433F8EFCF68943D
:1052800034F8ECCFEAE02E9E200D1124222E6894F3
:1052900035F8E4CF8E3229F436FC04C1689436F830
:1052A000DDCF8C3619F4689437F8D8CF8836B1F250
:1052B000982F9F7D95549330E0F08336A1F183378A
:1052C000C1F1833509F063C02801F2E04F0E511C93
:1052D000F801C080D180692D70E036FC02C06FEF0C
:1052E0007FEFC6010E94BC2A4C01689437F8820106
:1052F0000AC00C5F1F4FFFE3F98388248394912C2D
:105300006501E89437F833FE2DC0522C81149104C6
:1053100071F5552009F468CFB70180E290E00E9452
:10532000D22A5A94F6CFF801808189830E5F1F4FED
:10533000E4CF2801F2E04F0E511CF801C080D1806B
:10534000692D70E036FC02C06FEF7FEFC6010E944E
:10535000C72A4C018201D5CFB70180E290E00E94BC
:10536000D22A2A942814190409F0B0F7CECFF601F6
:1053700037FC859137FE81916F01B70190E00E9463
:10538000D22A51105A94F1E08F1A9108BFCF843677
:1053900019F0893609F077C0F80137FE6BC06081DB
:1053A0007181828193810C5F1F4FF32DFF763F2E19
:1053B00097FF09C090958095709561957F4F8F4FAD
:1053C0009F4F689437F82AE030E0A5010E94022B35
:1053D000C82ECA188C2C432C36FE0CC0E89440F81A
:1053E000C91440F434FE05C032FC03C0F32DFE7E28
:1053F0004F2E892C44FE95C0FE01EC0DF11D8081DD
:10540000803309F087C0242D297E422E842D887098
:10541000582E43FC95C040FE8FC09C2C821418F47B
:105420002C0C922C981844FE91C0B70180E390E0B8
:105430000E94D22A42FE09C088E790E041FE02C0E5
:1054400088E590E0B7010E94D22AC91408F48AC006
:10545000CA94D12C9FEFC91AD90ACA0CDB1CF601D9
:1054600082916F01B70190E00E94D22AAC14BD0472
:10547000B1F74FCF60817181072E000C880B990B1B
:105480000E5F1F4F92CFD32CE894D4F82AE030E07F
:10549000853739F1232D297FD22E8F3601F148F43B
:1054A0008835A9F0F701868197812B96E2E10C946B
:1054B0002D25803749F08837A9F7D4FE02C06894BB
:1054C000D2F820E130E00DC06894D4F8F6CF34FE75
:1054D00003C0822F8660D82E20E132E002C028E08F
:1054E00030E0F801D7FE0FC0608171818281938125
:1054F0000C5F1F4FA5010E94022BC82ECA183D2C1D
:10550000E89437F867CF6081718190E080E00E5FAA
:105510001F4FF0CF42FC02C0839478CF83948394D2
:1055200075CF842D867809F471CFF6CFB70180E26C
:1055300090E00E94D22A83948214C0F3512C73CF3E
:10554000522C5818821408F46ECFF8CF842D867828
:1055500009F47BCF8BE241FE80E247FC8DE2B7018C
:1055600090E071CFB70180E390E00E94D22A9A9434
:105570006CCF8FEF9FEF99CFFC0105906150704089
:105580000110D8F7809590958E0F9F1F0895FC010C
:105590006150704001900110D8F7809590958E0F62
:1055A0009F1F08950F931F93CF93DF93182F092FF9
:1055B000EB018B8181FD09C01FEF0FEF812F902F31
:1055C000DF91CF911F910F91089582FF14C02E811A
:1055D0003F818C819D81281739073CF4E881F9814E
:1055E000CF0101969983888310838E819F810196D4
:1055F0009F838E83E3CFE885F985812F0995892BD9
:10560000A1F3DACFFA01AA27283051F1203181F134
:10561000E8946F936E7F6E5F7F4F8F4F9F4FAF4FBA
:10562000B1E03ED0B4E03CD0670F781F891F9A1FCD
:10563000A11D680F791F8A1F911DA11D6A0F711D81
:10564000811D911DA11D20D009F468943F912AE08D
:10565000269F11243019305D3193DEF6CF01089575
:10566000462F4770405D4193B3E00FD0C9F7F6CFA6
:10567000462F4F70405D4A3318F0495D31FD40526E
:10568000419302D0A9F7EACFB4E0A6959795879504
:1056900077956795BA95C9F70097610571050895E3
:1056A0009B01AC010A2E069457954795379527958F
:1056B000BA95C9F7620F731F841F951FA01D089527
:1056C000F894FFCF00001455020000125A020000A7
:1056D000105F0200000E640200000C690200000A64
:1056E0006E020000E6048000000040001400540038
:1056F0007601D3017101D301D301D3016B01D30131
:10570000D301D301D301D301D301D3016601D30166
:10571000D301D301D301D301D301D301D301D301E9
:10572000D301D301D301D301D301D3016201020418
:10573000081020A701A1015E029801930188017C55
:1057400001000000007A085005040CF506D608ECAC
:105750000862082034485C70840000000022065073
:10576000057D056F06E0058C05D205000000004CA4
:10577000071F07040CF50618070507F606000000CA
:1057800000C20C5005040C24050D0A006E616E0069
:10579000696E66006F7666002100234556547C4D85
:1057A0004F44453A007C42544E3A007C453A4F4EB5
:1057B000002300526561643A20566F6C7473005286
:1057C0006561643A20416D707300526561643A20EE
:1057D000576174747300526561643A206B576800B6
:1057E0002000463A202573202D20563A20257300AC
:1057F000413A202573202D206B573A202573004114
:105800003A202573202D20573A2025730042544E0C
:105810005F310042544E5F320053535F36005353A2
:105820005F350053535F340053535F330053535F6E
:08583000320053535F31000008
:107800000C94343C0C94513C0C94513C0C94513CE1
:107810000C94513C0C94513C0C94513C0C94513CB4
:107820000C94513C0C94513C0C94513C0C94513CA4
:107830000C94513C0C94513C0C94513C0C94513C94
:107840000C94513C0C94513C0C94513C0C94513C84
:107850000C94513C0C94513C0C94513C0C94513C74
:107860000C94513C0C94513C11241FBECFEFD8E036
:10787000DEBFCDBF11E0A0E0B1E0ECE9FFE702C060
:1078800005900D92A230B107D9F712E0A2E0B1E065
:1078900001C01D92AD30B107E1F70E942D3D0C945F
:1078A000CC3F0C94003C982F959595959595959582
:1078B000905D8F708A307CF0282F295A8091C0000B
:1078C00085FFFCCF9093C6008091C00085FFFCCF60
:1078D0002093C6000895282F205DF0CF982F809127
:1078E000C00085FFFCCF9093C6000895EF92FF92F1
:1078F0000F931F93EE24FF2487018091C00087FD22
:1079000017C00894E11CF11C011D111D81E4E8164B
:1079100082E4F8068FE0080780E0180770F3E09132
:107920000401F091050109958091C00087FFE9CF1E
:107930008091C6001F910F91FF90EF9008950E94D3
:10794000763C982F8091C00085FFFCCF9093C600B5
:1079500091362CF490330CF09053892F089597555D
:10796000892F08951F930E949F3C182F0E949F3CCF
:107970001295107F810F1F9108951F93182F882350
:1079800021F00E94763C1150E1F71F9108951F935A
:10799000182F0E94763C803249F0809103018F5F5E
:1079A000809303018530C1F01F9108958091C0003C
:1079B00085FFFCCF84E18093C6008091C00085FFE5
:1079C000FCCF1093C6008091C00085FFFCCF80E102
:1079D0008093C6001F910895E0910401F091050184
:1079E00009951F9108950E94763C803241F0809164
:1079F00003018F5F80930301853081F008958091AA
:107A0000C00085FFFCCF84E18093C6008091C00058
:107A100085FFFCCF80E18093C6000895E0910401CA
:107A2000F09105010995089540E951E08823A1F0FE
:107A30002D9A28EE33E0FA013197F1F721503040CA
:107A4000D1F72D9828EE33E0FA013197F1F7215064
:107A50003040D1F7815061F708953F924F925F9285
:107A60006F927F928F929F92AF92BF92CF92DF924E
:107A7000EF92FF920F931F93CF93DF93000080E16B
:107A80008093C4001092C50088E18093C10086E015
:107A90008093C2005098589A259A81E00E94143D24
